{
  "contractName": "Market",
  "abi": [
    {
      "anonymous": false,
      "inputs": [
        {
          "indexed": false,
          "internalType": "uint256",
          "name": "listingId",
          "type": "uint256"
        },
        {
          "indexed": false,
          "internalType": "address",
          "name": "seller",
          "type": "address"
        }
      ],
      "name": "Cancelled",
      "type": "event"
    },
    {
      "anonymous": false,
      "inputs": [
        {
          "indexed": false,
          "internalType": "uint256",
          "name": "listingId",
          "type": "uint256"
        },
        {
          "indexed": false,
          "internalType": "address",
          "name": "seller",
          "type": "address"
        },
        {
          "indexed": false,
          "internalType": "address",
          "name": "token",
          "type": "address"
        },
        {
          "indexed": false,
          "internalType": "uint256",
          "name": "tokenId",
          "type": "uint256"
        },
        {
          "indexed": false,
          "internalType": "uint256",
          "name": "price",
          "type": "uint256"
        }
      ],
      "name": "Listed",
      "type": "event"
    },
    {
      "anonymous": false,
      "inputs": [
        {
          "indexed": false,
          "internalType": "uint256",
          "name": "listingId",
          "type": "uint256"
        },
        {
          "indexed": false,
          "internalType": "address",
          "name": "buyer",
          "type": "address"
        },
        {
          "indexed": false,
          "internalType": "address",
          "name": "token",
          "type": "address"
        },
        {
          "indexed": false,
          "internalType": "uint256",
          "name": "tokenId",
          "type": "uint256"
        },
        {
          "indexed": false,
          "internalType": "uint256",
          "name": "price",
          "type": "uint256"
        }
      ],
      "name": "Sold",
      "type": "event"
    },
    {
      "inputs": [
        {
          "internalType": "address",
          "name": "token",
          "type": "address"
        },
        {
          "internalType": "uint256",
          "name": "tokenId",
          "type": "uint256"
        },
        {
          "internalType": "uint256",
          "name": "price",
          "type": "uint256"
        }
      ],
      "name": "listToken",
      "outputs": [],
      "stateMutability": "nonpayable",
      "type": "function"
    },
    {
      "inputs": [
        {
          "internalType": "uint256",
          "name": "listingId",
          "type": "uint256"
        }
      ],
      "name": "getListing",
      "outputs": [
        {
          "components": [
            {
              "internalType": "enum Market.ListingStatus",
              "name": "status",
              "type": "uint8"
            },
            {
              "internalType": "address",
              "name": "seller",
              "type": "address"
            },
            {
              "internalType": "address",
              "name": "token",
              "type": "address"
            },
            {
              "internalType": "uint256",
              "name": "tokenId",
              "type": "uint256"
            },
            {
              "internalType": "uint256",
              "name": "price",
              "type": "uint256"
            }
          ],
          "internalType": "struct Market.Listing",
          "name": "",
          "type": "tuple"
        }
      ],
      "stateMutability": "view",
      "type": "function",
      "constant": true
    },
    {
      "inputs": [
        {
          "internalType": "uint256",
          "name": "listingId",
          "type": "uint256"
        }
      ],
      "name": "buyToken",
      "outputs": [],
      "stateMutability": "payable",
      "type": "function",
      "payable": true
    },
    {
      "inputs": [
        {
          "internalType": "uint256",
          "name": "listingId",
          "type": "uint256"
        }
      ],
      "name": "cancel",
      "outputs": [],
      "stateMutability": "nonpayable",
      "type": "function"
    }
  ],
  "bytecode": "0x60806040526000805534801561001457600080fd5b50610ff5806100246000396000f3fe60806040526004361061005c576000357c010000000000000000000000000000000000000000000000000000000090048063107a274a146100615780632d296bf11461009e57806340e58ee5146100ba5780637e07590d146100e3575b600080fd5b34801561006d57600080fd5b5061008860048036038101906100839190610a99565b61010c565b6040516100959190610bf5565b60405180910390f35b6100b860048036038101906100b39190610a99565b610234565b005b3480156100c657600080fd5b506100e160048036038101906100dc9190610a99565b61052e565b005b3480156100ef57600080fd5b5061010a60048036038101906101059190610c3c565b6107b4565b005b6101146109f1565b600160008381526020019081526020016000206040518060a00160405290816000820160009054906101000a900460ff16600281111561015757610156610ac6565b5b600281111561016957610168610ac6565b5b81526020016000820160019054906101000a900473ffffffffffffffffffffffffffffffffffffffff1673ffffffffffffffffffffffffffffffffffffffff1673ffffffffffffffffffffffffffffffffffffffff1681526020016001820160009054906101000a900473ffffffffffffffffffffffffffffffffffffffff1673ffffffffffffffffffffffffffffffffffffffff1673ffffffffffffffffffffffffffffffffffffffff168152602001600282015481526020016003820154815250509050919050565b60006001600083815260200190815260200160002090508060000160019054906101000a900473ffffffffffffffffffffffffffffffffffffffff1673ffffffffffffffffffffffffffffffffffffffff163373ffffffffffffffffffffffffffffffffffffffff1614156102de576040517f08c379a00000000000000000000000000000000000000000000000000000000081526004016102d590610cec565b60405180910390fd5b600060028111156102f2576102f1610ac6565b5b8160000160009054906101000a900460ff16600281111561031657610315610ac6565b5b14610356576040517f08c379a000000000000000000000000000000000000000000000000000000000815260040161034d90610d58565b60405180910390fd5b806003015434101561039d576040517f08c379a000000000000000000000000000000000000000000000000000000000815260040161039490610dc4565b60405180910390fd5b8060010160009054906101000a900473ffffffffffffffffffffffffffffffffffffffff1673ffffffffffffffffffffffffffffffffffffffff166323b872dd303384600201546040518463ffffffff167c010000000000000000000000000000000000000000000000000000000002815260040161041e93929190610e02565b600060405180830381600087803b15801561043857600080fd5b505af115801561044c573d6000803e3d6000fd5b505050508060000160019054906101000a900473ffffffffffffffffffffffffffffffffffffffff1673ffffffffffffffffffffffffffffffffffffffff166108fc82600301549081150290604051600060405180830381858888f193505050501580156104be573d6000803e3d6000fd5b507fa70b1a854695e7921b122988e216d3a6cd10ed799017c67b1ff231967e6bf56d82338360010160009054906101000a900473ffffffffffffffffffffffffffffffffffffffff1684600201548560030154604051610522959493929190610e39565b60405180910390a15050565b60006001600083815260200190815260200160002090508060000160019054906101000a900473ffffffffffffffffffffffffffffffffffffffff1673ffffffffffffffffffffffffffffffffffffffff163373ffffffffffffffffffffffffffffffffffffffff16146105d7576040517f08c379a00000000000000000000000000000000000000000000000000000000081526004016105ce90610efe565b60405180910390fd5b600060028111156105eb576105ea610ac6565b5b8160000160009054906101000a900460ff16600281111561060f5761060e610ac6565b5b1461064f576040517f08c379a000000000000000000000000000000000000000000000000000000000815260040161064690610d58565b60405180910390fd5b60028160000160006101000a81548160ff0219169083600281111561067757610676610ac6565b5b02179055508060010160009054906101000a900473ffffffffffffffffffffffffffffffffffffffff1673ffffffffffffffffffffffffffffffffffffffff166323b872dd308360000160019054906101000a900473ffffffffffffffffffffffffffffffffffffffff1684600201546040518463ffffffff167c010000000000000000000000000000000000000000000000000000000002815260040161072193929190610e02565b600060405180830381600087803b15801561073b57600080fd5b505af115801561074f573d6000803e3d6000fd5b505050507f26deca31ff8139a06c52453ce8985d34f7648a6d9af1d283c4063d052c355a0f828260000160019054906101000a900473ffffffffffffffffffffffffffffffffffffffff166040516107a8929190610f1e565b60405180910390a15050565b8273ffffffffffffffffffffffffffffffffffffffff166323b872dd3330856040518463ffffffff167c010000000000000000000000000000000000000000000000000000000002815260040161080d93929190610e02565b600060405180830381600087803b15801561082757600080fd5b505af115801561083b573d6000803e3d6000fd5b5050505060006040518060a00160405280600060028111156108605761085f610ac6565b5b81526020013373ffffffffffffffffffffffffffffffffffffffff1681526020018573ffffffffffffffffffffffffffffffffffffffff1681526020018481526020018381525090506000808154809291906108bb90610f76565b919050555080600160008054815260200190815260200160002060008201518160000160006101000a81548160ff02191690836002811115610900576108ff610ac6565b5b021790555060208201518160000160016101000a81548173ffffffffffffffffffffffffffffffffffffffff021916908373ffffffffffffffffffffffffffffffffffffffff16021790555060408201518160010160006101000a81548173ffffffffffffffffffffffffffffffffffffffff021916908373ffffffffffffffffffffffffffffffffffffffff16021790555060608201518160020155608082015181600301559050507f723f73331eaee88eec7fc68ef60ab6ed15e4b90d0472b55eb92fa43910bab6dd600054338686866040516109e3959493929190610e39565b60405180910390a150505050565b6040518060a0016040528060006002811115610a1057610a0f610ac6565b5b8152602001600073ffffffffffffffffffffffffffffffffffffffff168152602001600073ffffffffffffffffffffffffffffffffffffffff16815260200160008152602001600081525090565b600080fd5b6000819050919050565b610a7681610a63565b8114610a8157600080fd5b50565b600081359050610a9381610a6d565b92915050565b600060208284031215610aaf57610aae610a5e565b5b6000610abd84828501610a84565b91505092915050565b7f4e487b7100000000000000000000000000000000000000000000000000000000600052602160045260246000fd5b60038110610b0657610b05610ac6565b5b50565b6000819050610b1782610af5565b919050565b6000610b2782610b09565b9050919050565b610b3781610b1c565b82525050565b600073ffffffffffffffffffffffffffffffffffffffff82169050919050565b6000610b6882610b3d565b9050919050565b610b7881610b5d565b82525050565b610b8781610a63565b82525050565b60a082016000820151610ba36000850182610b2e565b506020820151610bb66020850182610b6f565b506040820151610bc96040850182610b6f565b506060820151610bdc6060850182610b7e565b506080820151610bef6080850182610b7e565b50505050565b600060a082019050610c0a6000830184610b8d565b92915050565b610c1981610b5d565b8114610c2457600080fd5b50565b600081359050610c3681610c10565b92915050565b600080600060608486031215610c5557610c54610a5e565b5b6000610c6386828701610c27565b9350506020610c7486828701610a84565b9250506040610c8586828701610a84565b9150509250925092565b600082825260208201905092915050565b7f43616e6e6f742062757920796f7572206f776e206c697374696e670000000000600082015250565b6000610cd6601b83610c8f565b9150610ce182610ca0565b602082019050919050565b60006020820190508181036000830152610d0581610cc9565b9050919050565b7f4c697374696e67206973206e6f74206163746976650000000000000000000000600082015250565b6000610d42601583610c8f565b9150610d4d82610d0c565b602082019050919050565b60006020820190508181036000830152610d7181610d35565b9050919050565b7f4e6f7420656e6f75676820455448000000000000000000000000000000000000600082015250565b6000610dae600e83610c8f565b9150610db982610d78565b602082019050919050565b60006020820190508181036000830152610ddd81610da1565b9050919050565b610ded81610b5d565b82525050565b610dfc81610a63565b82525050565b6000606082019050610e176000830186610de4565b610e246020830185610de4565b610e316040830184610df3565b949350505050565b600060a082019050610e4e6000830188610df3565b610e5b6020830187610de4565b610e686040830186610de4565b610e756060830185610df3565b610e826080830184610df3565b9695505050505050565b7f4f6e6c79207468652073656c6c65722063616e2063616e63656c20746865206c60008201527f697374696e670000000000000000000000000000000000000000000000000000602082015250565b6000610ee8602683610c8f565b9150610ef382610e8c565b604082019050919050565b60006020820190508181036000830152610f1781610edb565b9050919050565b6000604082019050610f336000830185610df3565b610f406020830184610de4565b9392505050565b7f4e487b7100000000000000000000000000000000000000000000000000000000600052601160045260246000fd5b6000610f8182610a63565b91507fffffffffffffffffffffffffffffffffffffffffffffffffffffffffffffffff821415610fb457610fb3610f47565b5b60018201905091905056fea26469706673582212208a12a37ad9c04dac40d347cd2dc341777968767e5d0ca7d30f543bbfa06f648564736f6c63430008090033",
  "immutableReferences": {},
  "source": "// SPDX-License-Identifier: MIT\npragma solidity ^0.8.9;\n\nimport \"./IERC721.sol\";\n\ncontract Market {\n    enum ListingStatus {\n        Active,\n        Sold,\n        Cancelled\n    }\n\n    struct Listing {\n        ListingStatus status;\n        address seller;\n        address token;\n        uint tokenId;\n        uint price;\n    }\n\n    event Listed(\n        uint listingId,\n        address seller,\n        address token,\n        uint tokenId,\n        uint price\n    );\n\n    event Sold(\n        uint listingId,\n        address buyer,\n        address token,\n        uint tokenId,\n        uint price\n    );\n\n    event Cancelled(\n        uint listingId,\n        address seller\n    );\n\n    uint private _listingId = 0;\n    mapping(uint => Listing) private _listings;\n\n    function listToken(address token, uint tokenId, uint price) external {\n        IERC721(token).transferFrom(msg.sender, address(this), tokenId);\n        Listing memory listing = Listing(\n            ListingStatus.Active,\n            msg.sender,\n            token,\n            tokenId,\n            price\n        );\n\n        _listingId++;\n\n        _listings[_listingId] = listing;\n\n        emit Listed(\n            _listingId,\n            msg.sender,\n            token,\n            tokenId,\n            price\n        );\n    }\n\n    // function can read and write\n    // view - read-only\n    // pure - no read, no write\n    // payable - read and write\n\n    function getListing(uint listingId) public view returns (Listing memory) {\n        return _listings[listingId];\n    }\n\n    function buyToken(uint listingId) external payable {\n        Listing storage listing = _listings[listingId];\n\n        require(msg.sender != listing.seller, \"Cannot buy your own listing\");\n        require(listing.status == ListingStatus.Active, \"Listing is not active\");\n        require(msg.value >= listing.price, \"Not enough ETH\");\n\n        IERC721(listing.token).transferFrom(address(this), msg.sender, listing.tokenId);\n        payable(listing.seller).transfer(listing.price);\n\n        emit Sold(\n            listingId,\n            msg.sender,\n            listing.token,\n            listing.tokenId,\n            listing.price\n        );\n    }\n\n    function cancel(uint listingId) public {\n        Listing storage listing = _listings[listingId];\n\n        require(msg.sender == listing.seller, \"Only the seller can cancel the listing\");\n        require(listing.status == ListingStatus.Active, \"Listing is not active\");\n        \n        listing.status = ListingStatus.Cancelled;\n\n        IERC721(listing.token).transferFrom(address(this), listing.seller, listing.tokenId);\n\n        emit Cancelled(\n            listingId,\n            listing.seller\n        );\n    }\n}",
  "sourcePath": "/Users/rsoutar/Projects/NFT-markt/contracts/Market.sol",
  "compiler": {
    "name": "solc",
    "version": "0.8.9+commit.e5eed63a.Emscripten.clang"
  },
  "schemaVersion": "3.4.4",
  "updatedAt": "2022-01-21T15:34:51.413Z",
  "networkType": "ethereum",
  "devdoc": {
    "kind": "dev",
    "methods": {},
    "version": 1
  },
  "userdoc": {
    "kind": "user",
    "methods": {},
    "version": 1
  }
}